:020000040000FA
:1000000028280020F902000001030000030300007B
:1000100005030000070300000903000000000000C2
:100020000000000000000000000000000B030000C2
:100030000D030000000000000F030000110300008A
:100040006905000013030000A9090000E505000090
:100050001303000013030000A103000013030000BA
:1000600059090000130300001303000013030000EC
:100070001303000013030000130300001303000028
:1000800013030000C1050000130300001303000068
:1000900039060000130300001303000013030000DF
:1000A00013030000130300001303000013030000F8
:1000B0001303000013030000000000000000000014
:1000C00013030000130300001303000013030000D8
:1000D00013030000130300001303000000000000DE
:1000E0000000000000000000000000000000000010
:1000F0000000000000000000000000000000000000
:1001000000000000000000000000000000000000EF
:1001100000000000000000000000000000000000DF
:1001200000000000000000000000000000000000CF
:1001300000000000000000000000000000000000BF
:1001400000000000000000000000000000000000AF
:10015000000000000000000000000000000000009F
:10016000000000000000000000000000000000008F
:10017000000000000000000000000000000000007F
:10018000000000000000000000000000000000006F
:10019000000000000000000000000000000000005F
:1001A000000000000000000000000000000000004F
:1001B000000000000000000000000000000000003F
:1001C000000000000000000000000000000000002F
:1001D000000000000000000000000000000000001F
:1001E000000000000000000000000000000000000F
:1001F00000000000000000000000000000000000FF
:10020000DFF80CD000F0BAF800480047C911000030
:100210002828002030B4044654E8000F0D4644E876
:100220000053002BF8D1156030BC704730B4044641
:1002300054E8000F40EA010544E80053002BF7D1D1
:10024000156030BC704730B4044654E8000F00EA33
:10025000010544E80053002BF7D1156030BC70470E
:1002600030B4044654E8000F80EA010544E8005326
:10027000002BF7D1156030BC704730B4044654E809
:10028000000F00EB010544E80053002BF7D1156087
:1002900030BC704730B4044654E8000FA0EB0105B1
:1002A00044E80053002BF7D1156030BC704770B4A0
:1002B00004464FF0000054E8006F0D68AE4207BFDF
:1002C00044E80023012044E800630E60002B1CBFBB
:1002D0000020F0E770BC704730B4044654E8000FCB
:1002E00088422CBF451A054644E80053002BF5D13F
:1002F000156030BC7047000006488047064800473C
:10030000FEE7FEE7FEE7FEE7FEE7FEE7FEE7FEE7C5
:10031000FEE7FEE73D0600000102000000487047CE
:10032000E832000040EA01039B0703D009E008C956
:10033000121F08C0042AFAD203E011F8013B00F8AA
:10034000013B521EF9D27047D2B201E000F8012BF6
:10035000491EFBD270470022F6E710B513460A4645
:1003600004461946FFF7F0FF204610BD421C10F866
:10037000011B0029FBD1801A70470000064C074D75
:1003800006E0E06840F0010394E807009847103465
:10039000AC42F6D3FFF738FFA8330000C8330000A3
:1003A0002DE9F04700268AB0DFF85091B0464FF4AF
:1003B0008075012437460696284601F007FB38B1C0
:1003C000D9F80403204203D0284601F0F5FA264369
:1003D0002D1D64007F1CADB2082FEDD34FF4BE7409
:1003E000204601F0F3FA48B1204601F0E5FA46F064
:1003F000004606AA0121002001F0CAFA404D16F07D
:10040000FF0F15D00127002437420DD009EB8401DE
:10041000D1F81005D1F81015C0F3042055F82420A8
:10042000C1F3014102B190477F00641C082CEBD35B
:10043000002E5FDA4FF0FF30CDF8108054E028191D
:1004400010F8507F90F9000027F0C008401C3BD006
:1004500007A9404601F006F810B34FEA9719404645
:1004600000F078FC55F820701FB1B9F1030F03D0EC
:1004700006E0B9F1030F27D104A9404600F0FAFFC6
:100480004FF0A04101EB8800D0F8000706A9C0F3A7
:10049000014A404600F0E6FF18B1BAF1020F03D05E
:1004A00012E0BAF1030F0FD1B9F1030F08D1BAF17D
:1004B000020F1DD00221404601F040FA761CF6B230
:1004C00017B149464046B847641C042CB7D3002EE8
:1004D00010D06A460121002001F05AFA06990098CE
:1004E000884207D006900498002634460790A6E775
:1004F0000321E0E70AB0BDE8F0870000006000409B
:100500000401002000F01F020121914040098000F9
:1005100000F1E020C0F88012704700F01F020121B6
:1005200091404009800000F1E020C0F800117047C0
:1005300000F01F02012191404009800000F1E020FD
:10054000C0F8001270474907090E002806DA00F0CB
:100550000F0000F1E02080F8141D704700F1E0204A
:1005600080F800147047000070B54FF48076304674
:1005700000F08AFF114CB50560B1304600F08BFFEA
:100580000120C5F80803607920B901206071216855
:10059000002088474FF48276304600F075FF00282F
:1005A0000AD0304600F077FF0220C5F80803216822
:1005B000BDE870400120084770BD00002C000020FD
:1005C00007480021C0F84011C0F84411C0F8481194
:1005D000C0F84C11C0F80011C0F8041102F0DABBE9
:1005E00000100140F8B51248124E04464FF48C71C9
:1005F00001F0A3FD00281AD00025C4F81851D4F842
:1006000018010090F07F3446FF2806D0A17F11B179
:1006100001F0A5F901E001F0A9F965772572D4E9A7
:10062000002101B004F10800BDE8F0401047F8BD1A
:10063000003000406001002002F01EBBF0B5B5485C
:100640000023021D0178101D01254FF0805406295A
:100650000BD11678360708D10678C6F30316032E99
:1006600006D0042E04D0052E02D0062907D00EE0B5
:10067000B4F82463A84FC6F304263E6002E016785F
:10068000360704D10678C6F30316032E02D00629D6
:1006900004D00FE0A24FA14E7E670EE01678360719
:1006A00008D10678C6F30316032E06D0042E04D014
:1006B000052E02D0062907D00EE0D4F84462994FE7
:1006C000C6F342363E6002E01678360704D106785B
:1006D000C6F30316032E02D0062906D011E0924E6F
:1006E000376827F0807737600EE01678360708D134
:1006F0000678C6F30316032E06D0042E04D0052E6A
:1007000002D006290AD011E04FF08046C6F80C311D
:10071000C6F81031834E361F336002E01678360774
:1007200004D10678C6F30316032E02D0062905D09D
:100730000CE07C4F032664373E600AE016783607EB
:1007400004D10678C6F30316032E02D006290DD075
:1007500014E0764F05263E60744E78363560734E51
:10076000083633603F263F1D3E6002E016783607AC
:1007700004D10678C6F30316052E02D0062957D0F9
:1007800062E06B4E36686B4F3E60694E361D3668D0
:100790003F1D3E60664E083636683F1D3E60644E23
:1007A0000C3636683F1D3E60614E103636683F1D80
:1007B0003E605F4E143636683F1D3E605C4E183614
:1007C00036685C4F20373E60594E1C3636683F1DF8
:1007D0003E60574E203636683F1D3E60544E2436EC
:1007E00036683F1D3E60524E283636683F1D3E60DB
:1007F0004F4E2C3636683F1D3E604D4E30363668C3
:100800004C4F40373E604A4E343636683F1D3E609E
:10081000474E383636683F1D3E60454E3C3636689A
:100820003F1D3E60424E403636683F1D3E6002E04E
:100830001678360708D10678C6F30316032E06D0BD
:10084000042E04D0052E02D0062907D019E0D4F8D2
:100850005812394A01F04F01116002E0117809077E
:100860000FD10078C0F30310032803D0042801D06F
:10087000052806D131480168C90702D06FF001018F
:100880000160D4F83001062808D1D4F834010628D4
:1008900004D12B48016841F480610160224874381A
:1008A000016841F470010160BFF34F8FBFF36F8F98
:1008B0004FF01021D1F80002002803DBD1F8040228
:1008C000002822DA1F4A15601F480468002CFCD05B
:1008D0001524C1F800420568002DFCD0C1F804427F
:1008E00001680029FCD0136001680029FCD0BFF327
:1008F0004F8F0D48F0380168144A01F4E06111434C
:100900000160BFF34F8F00BFFDE712491048086038
:10091000F0BD0000E00F00F0403501400DF0ADBA31
:1009200000C007403C050040FCED00E010560040D0
:100930000404001020C50040E40E00400004004004
:100940003C17004004E5014000E401400400FA05C2
:100950000090D003C00000202DE9F047104E04277E
:1009600000244FF4A0784FF4803900BF08EB8405D1
:1009700009FA04F0715961B1D6F80413014208D0A4
:100980002946304601F0DEFB0648D0E90021284622
:100990009047641CE4B2BC42E8D3BDE8F087000095
:1009A00000800040D401002001480068004700009A
:1009B0002400002002E008C8121F08C1002AFAD152
:1009C00070477047002001E001C1121F002AFBD1CF
:1009D0007047000072B601F0D7FA00BF01F0D6F8F8
:1009E0000028FBD1104C0121208801EB00400FA111
:1009F00001F02CFA10480068C00700D000BE208823
:100A0000022101EB00400DA101F020FABFF34F8F4E
:100A10000948E43801680D4A01F4E06111430160BE
:100A2000BFF34F8F00BFFDE7E8000020466174610F
:100A30006C206572726F7200F0ED00E05379737490
:100A4000656D207265736574000000000400FA058E
:100A50000EB500210091CDE901106A4644F2010073
:100A6000FFF7B8FF0EBD00000148006870470000A6
:100A70000415014070B501F097FF104800240B21C8
:100A8000047044700E4D817014206C602C706C707A
:100A9000FFF738FD07211420FFF755FD1420FFF75D
:100AA0003CFD0848046007211120FFF74CFD054874
:100AB000001F0068A860002070BD0000F401002045
:100AC000340000200815014000F002B800F008B81A
:100AD00072B602480168491C016070474800002056
:100AE00003490868401E086000D162B670470000E4
:100AF000480000202DE9F041064608680C46411CDC
:100B00004FF0A0474FF0010506D005FA00F1C7F8F5
:100B10000815206800F0FEFE6068411C02D000212C
:100B200000F0DCFE3168A069C1F82405607D227DFB
:100B300031681043C1F86C05D4E900123068C0F880
:100B40001425C0F80C15207D012815D1A068411C82
:100B500002D0002100F0C2FEE068411C05D08540B3
:100B6000C7F80855E06800F0D5FED4E902123068F5
:100B7000C0F80825C0F81015BDE8F0812DE9F04156
:100B8000064608680C46411C4FF0A0474FF001058F
:100B900006D005FA00F1C7F80815206800F0C4FE79
:100BA0006068411C02D0002100F0A1FE3168A069FC
:100BB000C1F82405607D217D32680843C2F86C05C8
:100BC000D4E900123068C0F80C15C0F81425207D57
:100BD000012815D1A068411C02D0002100F087FE39
:100BE000E068411C05D08540C7F80855E06800F072
:100BF0009BFED4E902123068C0F80825C0F8101531
:100C0000BDE8F0812DE9FC410646C0074FF0000425
:100C10000ED00E4F00250122785D0094002311466E
:100C2000019400F001FE6D1C032DF4D300F02AF8AE
:100C3000B00709D505480022401E03230078009420
:100C40001146019400F0F0FDBDE8FC81F93100008F
:100C500007490B5C4FF0A041D1F8042501209840D2
:100C600020EA0203C1F808351040C1F80C057047AE
:100C7000F93100000249085C012100F07EBE00004D
:100C8000F931000010B500242046FFF7F3FF641C83
:100C9000032CF9D310BD00002DE9F0470546861C52
:100CA00090460F464FF001090020FFF70DFF1B4C47
:100CB00020683860D4E90001401AA16804F21C479A
:100CC000081A0EE00121384600F064FB00F02EFA0D
:100CD0000146384600F05EFBD4E90001401AA168E5
:100CE000081A401C8642EDD8B8F1000F03D0052049
:100CF00065F3891002E0062065F39F50A268216821
:100D0000114004EB8101C86020683044206000205D
:100D1000FFF7DCFE4846BDE8F08700000004002035
:100D200030B482680468531C8360A154D0E9011276
:100D30008A4202D330BC00F07EBC30BC7047000059
:100D4000034803C8814201D1012070470020704749
:100D5000000400200249084490F930007047000068
:100D60000401002070B5084C050009D0103421683A
:100D7000002907D008682060496828468847F6E7B8
:100D80000834F4E770BD0000E0010020054A0121AD
:100D900020B1012805D19170FFF7E4BF5170002008
:100DA000FAE77047E00100202DE9F05F264841682E
:100DB000F1B3DFF898B00E688146DBF80040876831
:100DC0008078E11B21F07F45ED1CB0B9DFF8808011
:100DD0004FF48030C8F84403C8F804031120FFF72B
:100DE00091FB1120FFF799FB4FF0010AC8F800A012
:100DF0002F2001F015FA89F802A0B54200D235463D
:100E0000124BE8193C3320F07F401860DBF80010EB
:100E10005A46091B21F07F41001B20F07F40C91C6E
:100E200081420FD9106818602F2001F0F9F900E015
:100E300004E0BDE8F05F1120FFF77ABBBDE8F05F8A
:100E400001F0B2BDBDE8F09F340000200415014060
:100E50000010014010B50021024800F0A6FA80F30E
:100E6000100010BD1C0800200E4910B50A784C78FF
:100E70000023A24212D0521CD2B20A70022A00D120
:100E80000B70084A0B780C3252F8232002608868F5
:100E9000104420F07F408860012010BD03600020D6
:100EA00010BD0000340000202DE9FC5F0E008346D9
:100EB000DDE90C47C6F1000098469246814600D411
:100EC0000846012503E000BF90FBFAF06D1C504579
:100ED000FADAA84500D9454624B1002E01DB78078F
:100EE00000D5641EB80702D5B8F1000F0AD0F80784
:100EF00008D13CB1A54205D220215846641EFFF717
:100F00000FFFF6E7002E02DA4E462D2102E07807A9
:100F100003D52B215846FFF703FF07F003000228F3
:100F20000BD1B8F1000F08D13CB1A54205D2302158
:100F30005846641EFFF7F4FEF6E7CDE90047434646
:100F400052463146584602F0E9F8BDE8FC9F0000E1
:100F500070B50D46044600684FF4887101F00EF933
:100F60004FF49071206801F009F94FF492712068F4
:100F700001F004F94FF4A271206801F0FFF8206835
:100F80001249C0F8041320686907000B40B2090E2B
:100F9000002806DA00F00F0000F1E02080F8141DB0
:100FA00003E000F1E02080F8001420680121000B2C
:100FB00040B200F01F0291404009800000F1E020A3
:100FC000C0F88012C0F8001170BD000010030200CC
:100FD000024600201268930702D0530702D47047DC
:100FE000500714D502F00300012802D002280CD1CA
:100FF00005E0C2F383100B68801C184404E0022350
:10100000086803EB9252104408600120704708689A
:1010100000EB9253C2F38910401CEEE702681346BE
:1010200002E08A4204D01268002AFAD10B60016003
:10103000704700002DE9F047394E002780463D46B5
:10104000DFF8E090D6F804A057E003D00446D0F8CB
:101050001C8035E099F8002002EB4201521CD2B20C
:1010600089F8002009EBC10199F80230091D9A4264
:1010700001D189F8005048680A780446012A12D044
:10108000022A02D0032A3BD108E001F053FE00B14E
:101090000127257434E00574C06900E070680028F9
:1010A000F9D170602CE0207C50BB88686060C86813
:1010B000A0600869E0604869A061F07800B16560EF
:1010C0006268B168184B501A20F07F40984202D2F3
:1010D000A168084406E0881AA16820F07F40814298
:1010E00002D9081A206000E0256065600120A56033
:1010F00020742046E56101F0FFFDB8F10000A4D1A5
:1011000099F8001099F801008142A3D117B97168CC
:10111000514502D00120BDE8F0870020FBE7000028
:1011200034000020F4010020FFFF7F002DE9FF4183
:101130000026234800F02BF92148001F074600F045
:1011400026F9204C60680090A56800E00098694688
:10115000284004EB80000C30FFF73AFF0028F5D15F
:1011600001AA009901EA050304EB8303491CDB682B
:1011700042F82030401C00910228F2D3019800F080
:10118000030001280BD0022810D10198032101EBA4
:1011900090500099BDF80A6001EB900005E00198BD
:1011A000BDF80A60C0F3831008440090384600F090
:1011B000EBF808B10098606004B03046BDE8F081FB
:1011C00018080020000400208EB00120FFF71AFD4F
:1011D0004FF40041002000F093FE08B1FFF738FC07
:1011E00000F0C6FC344B0DF1100C0FCB8CE80F0057
:1011F0000D208DF813000B208DF812000C208DF8B7
:10120000110008208DF810002B4800232B4A04A958
:10121000103800F097F908B1FFF71AFC00F054F904
:1012200008B1FFF715FC002000F068F9FFF722FC79
:1012300023480321008801EB004022A100F006FEB4
:10124000264C0025C4F80F50A4F81350657525707E
:10125000224907220831CB1D16468DE84E0016485C
:1012600000220C38694601F0DDF818B1FFF7F0FBF9
:1012700000E020BF20780028FBD000BF00F086FCF3
:101280000028FBD1FFF7F0FB00900020FFF7E0FC07
:10129000C82000F009F90120FFF7DAFCC82000F0AF
:1012A00003F90220FFF7D4FCC82000F0FDF8FFF797
:1012B000DBFB0090C6E70000E8310000852A000053
:1012C000E8000020535049206578616D706C6520FE
:1012D000737461727465642E0000000000000020C9
:1012E0002DE9F047C7880446181D16468946B0FB0D
:1012F000F7F1B0FBF7F207FB12009A193A44D21C3F
:10130000B2FBF7F2DDF820A001E02468491E0029B5
:10131000FBD13D1A8846B54216D818E0BAF1000F45
:1013200005D0211809EB08002A46091D04E02044D5
:1013300009EB08012A46001DFEF7F4FF002024688F
:10134000761BA844B74201D9354600E03D46002E41
:10135000E4D1BDE8F087000030B5024659B100F095
:10136000FBFD0021074C09E004EB810315685B8855
:10137000AB4202D11160002030BD491C8142F3D341
:10138000052030BDC4000020002100F009B8012173
:1013900000F010B808B56A46FEF76FFF009808BD68
:1013A00008B56A46FEF74FFF08BD08B56A46FEF766
:1013B00031FF08BD08B56A46FEF738FF009808BD42
:1013C00008B56A46FEF766FF009808BD70B504468A
:1013D00000252846FFF778FB21686268086890427C
:1013E0000ED9401E08600178A38AE26801FB03253C
:1013F000227A2168101AC0B20A79824200D208719A
:101400000020FFF763FB284670BD70B505460C460B
:101410000020FFF759FBE868A98A201AB0FBF1F118
:101420002A681068431C13600170BDE870400020FA
:10143000FFF74CBB10B530B1017A42680368891AD6
:10144000C9B21A6006E00E2010BD03681A68541C69
:101450001C601170491EC9B2F7D2006800210171E9
:10146000084610BDC20800F007030120895C9840BF
:101470000840704710B5C20800F00703885C0124DB
:101480009C402043885410BD00F180400068002833
:1014900000D00120704708B500F1804000210160B4
:1014A0000068009008BD00002DE9F041040007D05D
:1014B000044E4FF47A47751C3846A847641EFAD18B
:1014C000BDE8F081D031000070B50A4C207808B139
:1014D00085250CE00020A06060602061E060064887
:1014E00000F068FE054600F04FFE012020702846FF
:1014F00070BD0000E00100208D0D000070B5104DA2
:101500000446A87838B114B16168012088470020EA
:10151000FFF7DAFA0CE00020FFF7D6FA24B108480A
:1015200021461030FFF77AFDE86808B900F052FE56
:10153000E868401CE860BDE870400020FFF7C6BACC
:10154000E00100202DE9FF411C460378164D174E9F
:1015500045F823200C3545F82340F0CE8DE8F00007
:101560000C788DF800404C788DF801408C788DF81F
:101570000240CC788DF803400C798DF805404C7909
:101580008DF806408C6802940C7B8DF80C40497BEA
:101590008DF80D1002B1064A6946001D00F07AFE72
:1015A00004B0BDE8F0810000EC000020FC31000038
:1015B000F92A0000F0B505460478154889B01646AA
:1015C00040F82420124A0869121DA2F1080742F8C7
:1015D0002400487F385520226846FEF7A3FE049475
:1015E0002878385C48B10EB10A4A00E0002269460A
:1015F000281D01F07FF809B0F0BD0EB1064A00E0E9
:101600000022694605F10C0000F046FFF3E70000F8
:101610001C000020F92F0000452E00000FB408B573
:101620000399002904D004AA00926A4600F00FF83A
:1016300001B05DF814FB10B582680446002A05D09D
:10164000D4E90403216898470020A06010BD2DE96B
:10165000FC4791460C00804676D014F8011B39B146
:1016600025290ED04046FFF75BFB20780028F4D1F7
:1016700098F80C00002867D04046BDE8FC47FFF70B
:10168000DABF0020012221782B291BD02D2902D07E
:10169000302908D102E040F0010001E040F00200F2
:1016A000641C002AEFD100252A290ED02178A1F14F
:1016B00030020A2A11D205EB850201EB4205641CB7
:1016C000303DF1E740F00400EAE7D9F800100B1DC7
:1016D000C9F800300968641C0D44217800232E29C4
:1016E0000BD114F8011FA1F130020A2A05D203EB35
:1016F000830201EB4203303BF3E76C290DD06829EC
:101700000BD0692921D00BDC252918D0582931D0DC
:1017100063290ED0642915D117E014F8011FECE7F6
:10172000702969D0732932D075291BD0782909D145
:1017300020E0D9F80000011DC9F8001001784046EA
:10174000FFF7EEFA641C90E76CE0D9F800100A1D70
:10175000C9F800200968CDE900500A224046FFF789
:10176000A3FBEFE7D9F800100A1DC9F800200968AB
:101770000A2206E0D9F800100A1DC9F800200968FD
:101780001022CDE90050404601F0C8FCDAE7D9F854
:10179000001000270A1DC9F800200E68C00705D1F7
:1017A00012E04046761C7F1CFFF7BAFA3178002918
:1017B000F7D104E0202140466D1EFFF7B1FABD428B
:1017C000C0D9002DF6D1BDE74EB13046FEF7CEFDB3
:1017D000074604E0202140466D1EFFF7A1FABD42F6
:1017E00006D9002DF6D103E04046761CFFF798FAA3
:1017F00031780029F8D1A5E7D9F80000011DC9F812
:101800000010056830214046FFF78AFA78214046EB
:10181000FFF786FA08200021CDE9000103461022D7
:101820002946B0E7BDE8FC8770B541EA4201DDE931
:1018300004564FF0A04441EA830141EA052104EB3C
:10184000800041EA0641C0F8001770BD70B541EA5A
:101850004201DDE904564FF0A04441EA830141EA28
:10186000052104EB800041EA0641C0F8001770BD75
:1018700070B541EA4201DDE904564FF0A04441EA67
:10188000830141EA052104EB800041EA0641C0F8EA
:10189000001770BD70B541EA4201DDE904564FF012
:1018A000A04441EA830141EA052104EB800041EABA
:1018B0000641C0F8001770BD1CB5002100910B4611
:1018C00001220191FFF7D4FF1CBD1CB5002100913E
:1018D0000B4601220191FFF7DDFF1CBD1CB5002264
:1018E0000B46009211460192FFF7C2FF1CBD1CB5CA
:1018F00000220B46009211460192FFF7CBFF1CBD60
:101900001CB5002100910B46012201911146FFF701
:101910009DFF1CBD1CB5002100910B4601220191C9
:101920001146FFF7A5FF1CBD1CB5002100910B4619
:10193000012201911146FFF7ADFF1CBD4FF0A042FF
:1019400002EB8000D0F8002722F44032C0F80027D4
:10195000D0F8002742EA0141C0F8001770474FF065
:10196000A04201218140C2F80C1570474FF0A042FF
:1019700001218140C2F80815704701224FF0A043B1
:10198000824011B1C3F808257047C3F80C25704791
:1019900018B5084B6C4601441B68009306E000BF75
:1019A00054F82030D3F81035401C08C28142F7D8D3
:1019B00018BD00000C320000034908B5084400219E
:1019C00001600068009008BD006000400249405876
:1019D000012800D0002070470060004030B5124B55
:1019E00001460020D3F81044224609E0157A8542CA
:1019F00005D1401C0A28F7DB4FF0FF3030BD52689C
:101A0000002AF3D1421CF9D00872D3F810242AB16D
:101A100052684A60D3F81024516030BD0022C3F8E8
:101A200010144A6030BD000000040020F0B595B0ED
:101A30001C4615460F4608461A9E00F05DFB18210D
:101A400009A8FEF788FC0E96CDE909540023082268
:101A500003A9384600F065FB05980690BDF8100014
:101A6000ADF81C00BDF81200ADF81E0000208DF886
:101A700021000398082600F00300012802D0022864
:101A800018D032E003983346850AC0F3C2008DF8BF
:101A9000200003980FA9C0F38314A200384600F079
:101AA00040FB09A8009006AB22460FA9284600F08B
:101AB0007FFA1AE00398840DC0F3C2008DF820006D
:101AC000082C01D2254600E0082533462A460FA9F6
:101AD000384600F026FB2E44641B09AB06AA2946B3
:101AE0000FA800F0B7F9002CEAD1384600F00AFB45
:101AF00015B0F0BD7047012001F0C2B9084810B51B
:101B00000178084A515C19B1001D00F07FFE02E027
:101B10000C3000F08DFDBDE81040002001F0B0B9A0
:101B2000500000201800002008B5034A009240230E
:101B3000024AFFF77BFF08BD452A00000003002092
:101B40000A4A012902EBC00007D0022907D0032965
:101B500007D0042907D000207047022070470420D6
:101B6000704700797047407970470000C833000023
:101B700010B5FFF7C0FF04210348FFF72FFF02490C
:101B80000120487210BD0000640000202DE9F047DC
:101B90008CB0FFF7D5F818B100200CB0BDE8F08785
:101BA000784C0020C4F81804BFF34F8F606802908F
:101BB000A5684FF00008284004EB800008E0216889
:101BC0000298814201D86160E6E7284004EB80007A
:101BD0000C3002A9FFF7FCF90028F0D103AB029901
:101BE00001EA050204EB8202491CD26843F8202076
:101BF000401C02910228F2D3039800F0030002284F
:101C000002D001284ED0A5E003985022810D8946CC
:101C1000B2EB905F00D850210E4666F39F500390C0
:101C20000831594800F01FFA070078D000F064FA34
:101C30004346082203A9384600F079FA029908F1D0
:101C4000080A2940681A8000001D864223D94D4D9C
:101C50000C3530B1C2B204EB8101301A90460C3120
:101C600004E02946F2B2002590462846C6B2534603
:101C7000384600F05CFA0AEB08032DB132462946DB
:101C80004FEA070000F053FA029909F1030001EB53
:101C9000900002903AE004EB810153463246384608
:101CA0000C31EFE70398C0F38311062900D3062116
:101CB00061F389100390C0F38310801C81003248C7
:101CC00000F0D1F9070045D000F016FA434608228B
:101CD00003A9384600F02BFA08F1080800260FE0A7
:101CE0000298434600EA0501401C04EB8101029082
:101CF000042238460C3100F01AFA08F10408761C68
:101D00000398C0F38310B042EAD847B1D4F8105416
:101D1000D4F8180468B1384600F0F4F92CE019E062
:101D2000687A012804D12A68284639461268904703
:101D30006D68002DF4D1384600F0E4F90020FEF77C
:101D4000C3FED4F8180408B9029860600020FEF7BA
:101D5000BDFE11E0D4F8104404E0216820468968F3
:101D600088476468002CF8D108480221008801EBFC
:101D7000004007A100F06AF8FEF7E2FF80F00100E2
:101D80000BE700000004002018340000E8000020E9
:101D90004261636B656E647320666C75736865641D
:101DA000000000002DE9F84F8146DFF89C80D01C30
:101DB00015468A46800800226946D8F80860FEF772
:101DC0006BFFB8B3009CA01C0090D8F808103040FE
:101DD000091A8F003F1DBD4208EB800002D82A4639
:101DE000514608E03A4651460C30FEF79BFA164839
:101DF000EA1B0AEB07010C30FEF794FA4FEA194789
:101E0000FFF728F847EA0042601C304008EB8000EA
:101E1000344008EB8401C260C8684FF6C07269F3B1
:101E2000C500904365F39F5020F00300801C20F014
:101E30000400C86098F8200402E000BFFFF7A6FE87
:101E40000028FBD1BDE8F88F0004002000231A46CB
:101E500000F0CCBE2DE9F0470E4680461C46924667
:101E600008293ED894F80C9000202073194610469B
:101E700000F042FD0025B54206D218F805201AA14F
:101E80002046FFF7CBFB03E019A12046FFF7C6FB76
:101E90006D1C082DEFD317A12046FFF7BFFB0025CF
:101EA000B54210D218F80570FEF738FA0068C05D28
:101EB00010F03E0F01D03A4600E02E220EA120463F
:101EC000FFF7ACFB03E00DA12046FFF7A7FB6D1C5D
:101ED000082DE5D301222146504600F0EFFC84F89E
:101EE0000C90BDE8F087000020253032780000001B
:101EF000202020007C00000025630000200000005E
:101F0000104810B5FF218160002101604160C0F8D8
:101F10001814C0F8141480F820140B4800F0F0F8DE
:101F200000280DD109480A490A4B401AC10800206F
:101F300003E000BF23F82000401C8842FAD30020B1
:101F400010BD000000040020183400001834000008
:101F5000C8330000C400002002480349401AC008EA
:101F60007047000018340000C833000013B56846FD
:101F7000FFF7F2F908B100201CBD0248009950F8A3
:101F800031001CBDC833000070B508480125D0F8E9
:101F9000104480F8205405E06572216820464968A5
:101FA00088476468002CF7D170BD00000004002051
:101FB0002DE9FF4781460C9D00200C462F7B28739E
:101FC000984616462946184600F096FC072E42D23F
:101FD000DFE806F004090F161F2A36004946284696
:101FE000FFF71CFB37E0494628462268FFF716FB3F
:101FF00031E0D4E9002349462846FFF70FFB2AE0E9
:10200000A0680090D4E9002349462846FFF706FB64
:1020100021E0D4E90201CDE90001D4E900234946D9
:102020002846FFF7FBFA16E004F1080007C88DE820
:102030000700D4E9002349462846FFF7EFFA0AE0F3
:1020400004F108000FC88DE80F00D4E900234946C9
:102050002846FFF7E3FA00222946404600F02EFC0E
:102060002F73BDE8FF872DE9F041858A80462D1F3B
:102070004819C01CB0FBF5F0C6B24046FFF7A6F900
:10208000041E19D00020207101206071E580002716
:102090002546761EC4F800800BE04046FFF796F90F
:1020A00060B16179491C6171286005467F1CC0F8E8
:1020B0000080B742F1D32046BDE8F081204600F011
:1020C00002F80020F8E72DE9F041457901466B1E42
:1020D000002201E00968521C9A42FBD30F680146B6
:1020E000002605E038460C68FFF78FF92146761C7C
:1020F000AE42F7D3BDE8F0810121001DFFF74AB9D8
:10210000FFF798B910B504460121001DFFF758F9F3
:1021100010F0FF0F04D12046BDE81040FFF7D3BFF9
:1021200010BD38B501240094FFF7DAF838BD38B592
:1021300000240094FFF7D4F838BD4058002800D0A0
:102140000120704708B5002242504058009008BD59
:102150004058002800D00120704708B500224250A6
:102160004058009008BDD0F80403084000D001207A
:1021700070474058002800D00120704708B5002261
:1021800042504058009008BD08480068012110F0F6
:10219000010F08D14FF0E020E02280F80024C0F8C1
:1021A0008012C0F8001102480160704700E100E0B1
:1021B000180500400649024600200B790BB1852026
:1021C00070470A6001220A7100224A7170470000BC
:1021D0002C00002070B54FF48270FFF75CF90220EC
:1021E0004107C1F804030B4B196841F08070186077
:1021F0000948026842F00104046044684FF40A553B
:102200004668361BAE42FBD30260196003490120C9
:10221000086070BDFCED00E0001000E00800004028
:10222000002802D001498001084770472132000090
:102230000121B1EB507F01D1012070470020704790
:102240000121B1EB507F01D1012070470020704780
:1022500070B50D4600F09CFB04000FD00020FEF787
:1022600033FC207920B10020FEF730FC112070BD36
:102270000120256020710020FEF728FC002070BDA1
:1022800010B500F085FB002802D00021016001712B
:1022900010BD00002DE9FC5F0C4601799046DFF887
:1022A0007CB101EBC1020BEB82060746307F9946F9
:1022B00010B10820BDE8FC9F594A3868054652F81D
:1022C0002110FFF7C5FF08B11120F3E7C6E9008927
:1022D000207B0128207802D8FFF741FB01E0FFF7BF
:1022E00045FB4FF0000ACDF800A0CDF804A02078FF
:1022F000534652460121FFF7A9FA60784FF0FF38A4
:10230000FF2806D08146FFF72AFB4846FFF7F8FA78
:1023100000E0C146A078FF2809D0002280460123B2
:10232000CDF800A01146CDF804A0FFF78FFA387958
:10233000A17800EBC0020BEB820080F82010E0785F
:10234000FF2817D0217911B1FFF709FB01E0FFF752
:102350000DFBE078FFF7D4FA3879E17800EBC002A2
:102360000BEB8202D1773A79217902EBC2020BEBB7
:10237000820081772278C5F80825C5F80C95C5F844
:102380001085A068C5F82405217B607B00B1012081
:10239000012904D0022905D0032908D105E040F025
:1023A000020004E040F0040001E040F00600C5F83F
:1023B0005405A079C5F8C005306810B14020C5F8B3
:1023C00004030720C5F800053068012108B3386808
:1023D0006279000B40B200284FEA421206DA00F0A0
:1023E0000F0000F1E02080F8142D03E000F1E02060
:1023F00080F800243868000B40B200F01F0301FA97
:1024000003F24009800000F1E020C0F88022C0F80B
:102410000021504686F81DA031774BE7600100206F
:10242000103200002DE9F04105460F4600791549AC
:1024300000EBC00001EB80041646607F10B1112054
:10244000BDE8F081206820B116F0140F01D1012001
:10245000607797E80F0004F10C0888E80F00E07F30
:10246000FF2806D0A17F11B1FFF780FA01E0FFF746
:1024700076FA33463A4621462868BDE8F04100F036
:1024800057BB0000600100200149024800F020BD58
:1024900084010020002000402DE9F041054600792C
:1024A00016460F4600EB40012D4A01EBC00102EB3E
:1024B000810494F82A1011B10820BDE8F08129495F
:1024C00051F820102868FFF7C3FE08B11120F4E787
:1024D00039462846FEF70EFB6660386920603000FA
:1024E0004FF001062FD03F7F4FF48E712868FFF721
:1024F00034FE4FF4A2712868FFF72FFE28681A49AE
:10250000C0F8041328684FEA4711000B40B20028B6
:1025100006DA00F00F0000F1E02080F8141D03E05F
:1025200000F1E02080F800142868000B40B200F0B1
:102530001F0206FA02F14009800000F1E020C0F815
:102540008012C0F8001128680421C0F8001500208E
:10255000A061E06184F8290044F8140FA675ACE787
:102560008401002014320000800002002DE9F047B1
:10257000054600790B4600EB400101EBC000234902
:1025800001EB8004284600F043F810B11120BDE8AB
:10259000F0874FF00008C4F82080A360626184F8DF
:1025A00028804FF48E76474631462868FFF7D5FDE0
:1025B00028684FF00109C0F808902146286800F00B
:1025C00023FC606800BBD5F800A00EE094F828005A
:1025D00008B10F2716E031465046FFF7B9FD002835
:1025E000F4D02146504600F00FFC216A6069814218
:1025F000F1D331462868FFF7ABFD0028F9D02868F1
:10260000C0F80C90C4F814803846C0E7840100205C
:10261000007900EB400101EBC000044901EB8000B0
:102620004069002800D0012070470000840100208C
:102630002DE9F047044600794FF0000900EB400116
:1026400001EBC000254901EB80072068C0F8009528
:10265000786880B120682249C0F8081320680121F9
:10266000000B40B200F01F0291404009800000F1D1
:10267000E020C0F880112068D0F80C25D0F814852F
:10268000D0F80865D0F810554FF0FF31C0F8141598
:10269000C0F80C152068C0F80815C0F81015501CBB
:1026A00002D01046FFF708F9B8F1FF3F02D04046CC
:1026B000FFF702F9681C02D02846FFF7FDF8701CEE
:1026C00002D03046FFF7F8F82068FFF7D9FD87F809
:1026D0002A90C7F80490BDE8F0870000840100202C
:1026E000840202000149024800F09EBCB0010020B3
:1026F000002000402DE9F0410546164600790F46BE
:10270000154A00EBC00102EB810494F8201011B1CE
:102710000820BDE8F081114951F820102868FFF722
:1027200097FD08B11120F4E739462846FEF726FA4E
:102730006660386920601EB1397F2846FEF708FCC4
:1027400028680821C0F800150020A061E06101217F
:10275000606184F82010DCE7B0010020183200002E
:102760002DE9F04704460E460079204900EBC000F1
:1027700001EB800517463046FFF762FD30B1204679
:1027800000F036F820B11120BDE8F0871020FBE7FB
:102790006F61AE604FF49076002731462068FFF7F6
:1027A000EDFC4FF4AC7841462068FFF7E7FC206869
:1027B000AA686969C0F84425C0F848152068012155
:1027C0008160686878B9B14649462068FFF7D1FC56
:1027D000064641462068FFF7CCFC0643F4D000B122
:1027E0000F27002068613846CEE70000B0010020C6
:1027F0000079054900EBC00001EB8000406900282A
:1028000000D0012070470000B00100202DE9F04702
:1028100004460079274900EBC00001EB80072068DF
:102820004FF00009C0F80095786880B1206822490F
:10283000C0F8081320680121000B40B200F01F020D
:1028400091404009800000F1E020C0F8801120682C
:10285000D0F80C25D0F81485D0F80865D0F81055BC
:102860004FF0FF31C0F80C15C0F814152068C0F8FF
:102870000815C0F81015501C02D01046FFF725F8B7
:10288000B8F1FF3F02D04046FFF71FF8681C02D0A6
:102890002846FFF71AF8701C02D03046FFF715F8EB
:1028A0002068FFF7EDFC87F82090C7F80490BDE89A
:1028B000F0870000B00100201003020010B50C46A4
:1028C000017A052908D0407A38B1084808A1026881
:1028D0002046FEF7A3FE00E01AB106A12046FEF74F
:1028E0009DFE2046BDE81040FEF7A5BE9C000020DE
:1028F000257300000D0A000038B5C3880D46044654
:1029000033B114A0009015A216A12846FEF786FE4A
:10291000217A05291CD0607A48B1A088FFF710F908
:10292000164951F8202016A12846FEF777FEA08808
:102930000021FFF71BFB03461049207A143951F898
:10294000202001B02846BDE830400EA1FEF766BE4B
:1029500038BD00001B5B306D000000001B5B313B8D
:1029600033316D0025734C6F67732064726F707024
:102970006564202825642925730D0A009C00002029
:10298000257300003C25733E2025733A200000008B
:102990000349884201D10348704700207047000076
:1029A000002000402400002070B5012670044FF084
:1029B000E0210025C1F88001084C4010C4F848030C
:1029C000C4F8080366602F20FFF72AFCA660044CB9
:1029D0002F20A560FFF724FCA57070BD00100140FA
:1029E0003400002070B5054688690C4600284FF475
:1029F000847128460AD0FFF7B0FBD5F81805626A43
:102A0000E1688854606A401C606270BDFFF7A5FBF6
:102A1000D5F8180570BD1FB501238DF80030CDE93C
:102A20000121D0E90012684690471FBD1FB5012360
:102A30008DF800308DF808100192D0E90012684638
:102A400090471FBD70B50D4C0020D2B22070201DE4
:102A50000B4D0378EB5C1BB1001DFFF781FE02E01C
:102A60000C30FFF783FD08B1FDF7F2FF6078002816
:102A700002D021780029FAD070BD00004C0000205F
:102A80001800002070B5124901200870114C032570
:102A900011A1208805EB0040FFF7D8F90C480F3052
:102AA0000078002813D0208810A105EB0040FFF724
:102AB000CDF907480F30FDF759FC82B22088044950
:102AC00005EB0040BDE870400F31FFF76BB970BDFA
:102AD00000000020E80000205472616E7366657289
:102AE00020636F6D706C657465642E0020526563A1
:102AF00065697665643A000000B585B00A460178DC
:102B00008DF8001041680191017A8DF80810C168B4
:102B10000391007C8DF81000044850F822100C3806
:102B200050F822206846904705B000BDF80000200C
:102B30002DE9F843044610681E4615460F464FF02F
:102B4000000810B1FFF774FBF8B1A86810B1FFF7E7
:102B50006FFBD0B1D5E90001C4F84405C4F84815AD
:102B6000D5E90201C4F83405C4F838154FF48C7562
:102B70004046C4F81881D4F818110091F2074FF0BC
:102B8000010107D0C4F8501506E087F81D80102019
:102B9000BDE8F883C4F85005B20702D5C4F8401563
:102BA00001E0C4F84005300700D42161386848B11D
:102BB00046F38000401C4FF0400014D0C4F80403DA
:102BC0000020E5E729462046FFF7B7FA0028F9D0AC
:102BD000F87FFF28F4D0B97F11B1FEF7C0FEEFE710
:102BE000FEF7C4FEECE7C4F80803E9E72DE9F84F67
:102BF000204D924689460646984601226946184667
:102C0000AF68FEF749F858B3009800210446801CCD
:102C100009E000BF00EA07035AF8212005EB83030F
:102C2000401C491CDA604145F4D34FEA164AFEF7CE
:102C300011F94AEA0041601C384005EB80003C4035
:102C400005EB8402C160D06866F3C50068F38910A3
:102C500069F39F2020F00300401C20F00400D060A6
:102C600095F8200402E000BFFEF790FF0028FBD19A
:102C7000BDE8F88F000400202DE9F84F1D4C002519
:102C80006846D4E901A6FEF7EFF8002738B3002321
:102C9000009A61681CE0D1F800C00846944503D949
:102CA000ACEB02020A6015E0A2EB0C026344076081
:102CB000D0F80CC0C1698146BCF1000F08D006EB0A
:102CC000030828F07F48C0E9018CC9F81C5005466C
:102CD0000029E0D128466160FEF7ACF903E0284600
:102CE000FEF7A8F910B15046FEF75EF8E770BDE8B0
:102CF000F88F0000340000200D4B10B5596831B139
:102D000002680C68A24204D8A21A0A60C161586025
:102D100010BD0B4603E00B46C969121B21B10C68BC
:102D20009442F8D3A41A0C600260C161D86110BD4E
:102D3000340000202DE9F041144E77683D462C46C2
:102D400003E0844204D02546E469002CF9D11BE05D
:102D5000D4B1A5420BD1F869706040B90C4901208B
:102D600088600021B160F0702F20FFF759FA2168C8
:102D7000E069E86110B1026811440160706887423F
:102D800002D00120BDE8F0810020FBE734000020E4
:102D9000001001402DE9F041194D6C68002C2CD039
:102DA000184800270068A968B846401A20F07F46F6
:102DB0002068B0420CD82146361A0744E469087CE2
:102DC00020B181F81080886949698847002CEFD1CB
:102DD00029786878814206D1401CC0B26870022808
:102DE00001D185F80180064869780C3040F82170DF
:102DF000BDE8F0411420FDF79BBBBDE8F081000069
:102E0000340000200415014070B50C4605464FF40F
:102E10008E71FFF7A2F9216AA068415C206A401C0C
:102E20002062C5F81C1570BD1FB500228DF800206A
:102E30000291816801914261D0E900126846904791
:102E40001FBD00001FB50A4601788DF800104168CB
:102E50000191017A8DF80810C0680390044850F879
:102E60002210001F50F82220684690471FBD000026
:102E70002000002001490120087070474C0000200C
:102E800010B588B0044620220E496846FDF74AFA7C
:102E900006200090C01F0190029003904FF0EB704D
:102EA00006900CB1084A00E0002269460748FEF788
:102EB00081FB08B1FDF7CCFD0448001F447008B049
:102EC00010BD000044320000752E000050000020AC
:102ED0002DE9FF470C4605464FF40071FFF743F913
:102EE00001274FF40178002618B34FF49279494630
:102EF0002846FFF72DF9E0B149462846FFF72DF99E
:102F0000C5F8088394F8290000B96F6002208DF895
:102F10000000D5F88004C5F880040390A0690290F1
:102F2000E0680190A661E661D4E900126846904726
:102F300028E004212846FFF716F918B34FF48471EE
:102F40002846FFF705F9E8B121462846FFF74AFD74
:102F5000616AA069884215D1E06938B1E268616AA6
:102F6000A0612069E6616662E06008E094F82900EB
:102F700000B96F60C5F80883A661E268616A2046FF
:102F8000FFF749FD4FF48E7841462846FFF7E0F8F9
:102F900078B1206A6169884202D294F8280020B38F
:102FA00041462846FFF7D9F8616911B12046FFF77D
:102FB0003BFF4FF4A27841462846FFF7C9F80028A6
:102FC00018D041462846FFF7C8F894F8290000B108
:102FD0002F60A06900280DD0A661E268616A04B084
:102FE0002046BDE8F047FFF716BD21462846FFF70B
:102FF0000BFFDEE7BDE8FF871FB50A4601788DF8B5
:10300000001041680191017A8DF80810C0680390A2
:10301000044850F82210001F50F8222068469047BC
:103020001FBD0000200000202DE9FF410C464FF499
:10303000927705463946FFF79CF80026C0B139461D
:103040002846FFF79BF802208DF80000D5F8800491
:10305000C5F880040390D5F83C058DF80800E068B9
:103060000190A661E661D4E900126846904723E02A
:103070004FF4887739462846FFF77BF8E0B13946A8
:103080002846FFF77BF8D5F83C15A069884213D194
:10309000E06960B1E268D5F8000220F02000C5F8D0
:1030A0000002E069A0612069E661E06001E0A661DC
:1030B000E2682046FFF7BAFC4FF4A277394628466B
:1030C000FFF757F860B139462846FFF757F8A0696F
:1030D00030B1A661D5F83C152046E268FFF7A6FCA2
:1030E0004FF4907739462846FFF743F8002813D06D
:1030F00039462846FFF742F8606900280CD0D5F819
:103100004C058DF800608DF80800A068019066619C
:10311000D4E9001268469047BDE8FF812DE9F05FD1
:103120008346DDE90A4A994690460D46084601273E
:1031300003E000BFB0FBF8F07F1C4045FAD2B94570
:1031400000D94F465FEACA7012D18CB15FEA8A702B
:1031500002D5B9F1000F01D0202607E0302605E0A6
:1031600031465846641EFDF7DBFD0CB1A742F7D38C
:103170005FF00106B9F1010F02D9A9F1010903E0DD
:10318000B5FBF6F0404502D306FB08F6F2E7DFF8A0
:103190003C9000BFB5FBF6F000FB165519F8001087
:1031A0005846FDF7BDFDB6FBF8F6002EF2D15FEAFA
:1031B000CA7009D0002C07D0A74205D2202158465A
:1031C000641EFDF7ADFDF5E7BDE8F09F2632000077
:1031D0000338FDD8704700000000000000300040B8
:1031E0000000000001000000FFFFFFFF07FF0000DC
:1031F000000000400000000012161718FFFFFFFF3C
:103200000007FF0000000040000000000000005028
:10321000E505000089240000E5260000000000000C
:103220000338FDD8704730313233343536373839CA
:103230004142434445460000291B0000FD1A00009E
:10324000F51A0000FFFFFFFFFFFFFFFFFFFFFFFF7B
:10325000FFFFFFFF00000000000000000000D6019B
:103260000701000000404040404040404040414194
:10327000414141404040404040404040404040404B
:1032800040404040400502020202020202020202E5
:1032900002020202022020202020202020202002E2
:1032A0000202020202029090909090901010101072
:1032B000101010101010101010101010101010100E
:1032C00002020202020288888888888808080808A2
:1032D000080808080808080808080808080808086E
:1032E0000202020240000000653200007761726E47
:1032F000696E670064656275670000001B5B313BA7
:1033000033306D001B5B306D000000001B5B313BF8
:1033100033316D001B5B313B33326D001B5B313B46
:1033200033336D001B5B313B33346D001B5B313B32
:1033300033356D001B5B313B33366D001B5B313B1E
:1033400033376D00696E666F000000006572726F42
:10335000720000004750494F54450000505253003E
:103360005350494D000000005541525400000000E8
:103370005541525445000000434C4F434B00000060
:1033800054494D4552000000636C6F636B000000B0
:1033900062616C6C6F632E6C6F675F6D656D706FD3
:1033A0006F6C00006170700030340000000000207D
:1033B000EC000000B40900001C350000EC00002007
:1033C0003C270000C4090000543300000000000046
:1033D0005C330000000000006033000000000000CB
:1033E000683300000000000070330000000000009F
:1033F000783300000000000080330000000000006F
:10340000883300000000000090330000000000033B
:10341000A4330000000003037800002070000020A7
:103420007800002040030020E40000201800000085
:1034300000000000000000004E6F7264696300002D
:10344000000000000000000000000000000000007C
:10345000000000000000000000000000000000006C
:10346000000000000000000000000000000000005C
:10347000000000000000000000000000000000004C
:10348000000000000020004000000000002000407C
:1034900000000000383200000000000000000000C2
:1034A000000000000000000000000000000000001C
:1034B0000000000000000000000000004C3300008D
:1034C000EC32000044330000F4320000043300000A
:1034D000FC3200000C330000143300001C330000E9
:1034E000243300002C330000343300003C33000050
:1034F0000090D00300000000000000000000000069
:1035000000000000000000000000000000000000BB
:0C351000000000000000000000000000AF
:0400000500000201F4
:00000001FF
